:020000000629CF
:10000800FF00030E8301B2000A08B3008A017008DA
:10001800A1007108A0000408A6002408A200250871
:10002800A3000B1D4F280B1164308100071487149F
:10003800071587152A082E3E84000008013EF000A7
:1000480002300318013EF1007008A4007108A500F1
:1000580060208A110A12860039280710492887105B
:10006800492807114928871149282A08003A0319FD
:1000780031282A08013A031933282A08023A0319B1
:1000880035282A08033A03193728AA0A2A08033CFC
:1000980003184F28AA012208A4002308A500210854
:1000A800F0002008F1002608840033088A00320E88
:0800B8008300FF0E7F0E09001A
:0E00C0008312031325088A002408820008001A
:1000CE000E3083120313FD00FD0B6B280000080099
:1000DE0060208A110A128000840AA40A0319A50A54
:0800EE00F003031D6F28080058
:1000F60083120313FB01FA01F9018030F800F10CB9
:10010600F00C031C8F287408F90775080318750F7F
:10011600FA070318FB0A0310F01F97287408FA075A
:1001260075080318750FFB07FB0CFA0CF90CF80C95
:10013600031C82287B08F3007A08F2007908F10094
:060146007808F00008003B
:0E014C004130831203139F0083160514080030
:10015A008530831603138100643083128100A03036
:04016A008B000800FE
:10016E0083120313F8010830FC00700DF80D7408AB
:10017E00F8020318C428F8070310F00DFC0BBC2876
:02018E00080067
:10019000831203139F012709F000700883169F053F
:1001A000C03083129F043608F000F00D7010F00D7F
:1001B0007010F00D701070089F041F1467201F1539
:1001C0001F1DE4280000E0281F101E08F000F101A8
:0201D000080025
:1001D20083120313F801F9011030FC00710DF80DC0
:1001E200F90D7408F8027508031C750FF90203185B
:1001F20001297408F80775080318750FF907031029
:0A020200F00DF10DFC0BEF280800D1
:10020C001222FF30831603138500860187018312A7
:10021C0086018701803083169F00A620AD202D0813
:10022C00003A031D292987160630FB001330FC0009
:10023C00AD30FD00FD0B2029FC0B2029FB0B2029E8
:10024C000000000087122D08003C03182E2987128D
:10025C00051967290330FB000830FC007730FD00DE
:10026C00FD0B3629FC0B3629FB0B362963302D028E
:10027C0003184129AD0A051967290A30F4002D0825
:10028C00F000B7207008AE000A30F4002D08F00022
:10029C00B7207808F0007008AF000630FB00133070
:1002AC00FC00AD30FD00FD0B5929FC0B5929FB0B53
:1002BC0059290000000063302D0203186629AD0A8D
:1002CC004129051AA0290330FB000830FC007730C7
:1002DC00FD00FD0B6F29FC0B6F29FB0B6F292D0803
:1002EC00003C03187A29AD03051AA0290A30F40042
:1002FC002D08F000B7207008AE000A30F4002D086D
:10030C00F000B7207808F0007008AF000630FB0052
:10031C001330FC00AD30FD00FD0B9229FC0B922933
:10032C00FB0B9229000000002D08003C03189F29AC
:10033C00AD037A290A30F4002D08F000B7207008BC
:10034C00AE000A30F4002D08F000B7207808F00059
:10035C007008AF00B601C8207008AB007108AC0083
:10036C002D08003C0318F6292B08F0002C08F1008E
:10037C003230F4000030F5007B20FF30F400033005
:10038C00F500E9207008B4007108B5003408A80025
:10039C003508A9000A30F400F5013408F0003508DE
:1003AC00F100E9207008B0000A30F400F5013408BF
:1003BC00F0003508F100E9207808F0007908F10028
:1003CC007008B1000230FB000430FC00BA30FD00B4
:1003DC00FD0BEE29FC0BEE29FB0BEE290000FA2994
:0C03EC00A801A901B001B1011529FB29ED
:1004240027308400073083120313F0000B30A4003C
:080434000230A5006F20080052
:100402003F3406345B344F3466346D347D34073404
:040412007F346F3490
:020416000734A9
:040418000034003478
:02041C000034AA
:04041E000034003472
:020422000034A4
:02400E005A0056
:00000001FF
